:100000000C9437000C945F000C945F000C945F001C
:100010000C945F000C945F000C945F000C94590BDF
:100020000C94820B0C94AB0B0C944F0C0C94D40BD3
:100030000C94FD0B0C94260C0C94DE0A0C94070B0C
:100040000C94300B0C945F000C944E060C949F069D
:100050000C945F000C945F000C945F000C945F00A4
:100060000C94D2030C945F0072029708C10D112406
:100070001FBECFEFD8E0DEBFCDBF11E0A0E0B1E002
:10008000E8EAF0E202C005900D92A836B107D9F770
:1000900012E0A8E6B1E001C01D92AB3FB107E1F765
:1000A00010E0CEE6D0E004C02297FE010E944E1080
:1000B000C836D107C9F70E9447060C9452100C9419
:1000C0000000EF920F9386EB91E00E940E0389E30C
:1000D00092E040E855E260E070E028E001E0EE24C4
:1000E0000E9434075298539A549A4A99FECF0E941C
:1000F0000206609368017093690180936A0190938E
:100100006B010F91EF900895CF92DF92EF92FF92E3
:100110000F931F93062FC42E96EBE92E91E0F92E34
:10012000682F772767FD7095C7010E943802112755
:1001300007FD1095C701602F0E94BA02DD24C7FC9D
:10014000D094C7016C2D0E94BA02C70161E00E94E1
:10015000EA021F910F91FF90EF90DF90CF900895EA
:10016000CF92DF92EF92FF920F931F93062FC82E2C
:10017000DD24C7FCD09426EBE22E21E0F22EC7014D
:10018000B6010E943802112707FD1095C701602FA4
:100190000E94BA02C70160E00E94EA0288EC90E087
:1001A0000E943A06C701B60141E050E00E940A03EE
:1001B000C7010E944B021F910F91FF90EF90DF90BB
:1001C000CF9008952F923F924F925F926F927F92BD
:1001D0009F92AF92BF92CF92DF92EF92FF920F93D6
:1001E0001F93CF93DF93EC011C010F2EF0E04F2EF5
:1001F000F0E05F2EF0E06F2EF0E07F2EF02D4BC090
:1002000080E666E242E80E94840068E070E080E0F8
:1002100090E00E94100680E661E00E94B000E82EA7
:1002200080E662E00E94B000982E80E663E00E94C3
:10023000B000A82EFF24E7FCF094FE2CEE24E90C7D
:10024000F11C0027F7FC0095102FC801B7010E9490
:10025000D50E7B018C01BB24CC24B7FCC094DC2CD4
:10026000C601B5010E94D50E20E030E040E85BE316
:100270000E94890F9B01AC01C801B7010E94D20DF9
:100280009B01AC01C301B2010E94D20D2B013C01C4
:1002900008942108310837FEB3CF2196BE01882784
:1002A00077FD8095982F0E94D50E9B01AC01C3016C
:1002B000B2010E943A0EDF91CF911F910F91FF90F2
:1002C000EF90DF90CF90BF90AF909F907F906F9016
:1002D0005F904F903F902F900895AF92BF92CF9232
:1002E000DF92EF92FF920F931F930E9402065B0131
:1002F0006C010E94020620916801309169014091D1
:100300006A0150916B01621B730B840B950B615654
:100310007A4E8040904048F04C9907C089E392E0C3
:1003200060E071E00E94A00A5C9A85E090E00E9483
:10033000E2007B018C0120916C0130916D014091B4
:100340006E0150916F010E94850F181644F4E092DF
:100350006C01F0926D0100936E0110936F0160913A
:100360006C0170916D0180916E0190916F01A801F7
:1003700097010E94D10D20E030E040E450E40E945B
:10038000850F1816E4F40E9402062091680130914E
:10039000690140916A0150916B01621B730B840BE0
:1003A000950B695B7B408040904048F04C9907C0BA
:1003B00089E392E068E071E00E94A00A5C9A89E318
:1003C00092E0B801A7012AE030E00E949D0A89E38B
:1003D00092E060E171E00E94B60940916C01509199
:1003E0006D0160916E0170916F0189E392E022E0EE
:1003F00030E00E949D0A89E392E064E171E00E948E
:10040000B60960916C0170916D0180916E019091BF
:100410006F01A80197010E94D10DAB01BC0189E3D6
:1004200092E02AE030E00E949D0A89E392E06AE1CE
:1004300071E00E94B6090E940206AB01BC014A1994
:100440005B096C097D0989E392E02AE030E00E94B3
:10045000A70989E392E061E271E00E94B6091F9169
:100460000F91FF90EF90DF90CF90BF90AF900895E5
:1004700081E08093B501609392011092B3011092D4
:10048000B40108952091910130E080919001281BE2
:100490003109C90108954091900180919101481757
:1004A00018F02FEF3FEF0AC0E42FF0E0E059FE4FC5
:1004B0008081282F30E04F5F40939001C90108955B
:1004C000E091900180919101E81718F0EFEFFFEFB4
:1004D00006C0F0E0E059FE4F8081E82FF0E0CF0148
:1004E000089508951092B9011092B80188EE93E032
:1004F000A0E0B0E08093BA019093BB01A093BC014F
:10050000B093BD0188E391E09093B7018093B60169
:100510000895CF92DF92EF92FF920F931F93CF93A4
:10052000DF937C016B018A018091B5018823A1F0E2
:10053000C0E0D0E00DC0D701ED91FC91D601AC0F29
:10054000BD1F0190F081E02DC7016C9109952196A6
:10055000C017D10780F304C0CB01642F0E94B703FA
:10056000C801DF91CF911F910F91FF90EF90DF9025
:10057000CF900895DF93CF930F92CDB7DEB7FC01F4
:1005800069838091B5018823C9F08091B4018032DC
:1005900038F081E090E09383828320E030E015C062
:1005A0008091B301E82FF0E0ED56FE4F99819083E2
:1005B0008F5F8093B3018093B40105C0CE01019693
:1005C00061E00E94B70321E030E0C9010F90CF91B4
:1005D000DF9108950F93062F8091920163E971E0F6
:1005E0004091B40121E00E9462031092B301109285
:1005F000B4011092B5010F910895413208F040E224
:10060000862F60E771E00E94190310929001809399
:100610009101089521E00E94FD0208951092900139
:10062000109291011092B3011092B4010E946705DB
:100630000895382F413210F040E042C08091C2014D
:100640008823E1F791E09093C2012093C4018FEFDA
:1006500080932F021092EA0141504093EB014F5FCB
:100660009093C3018091C301330F832B8093C30107
:100670008091C501813041F41092C5018091C30180
:100680008093BB0085EC01C085EE8093BC00809117
:10069000C2018130E1F38091EA01841710F44091A6
:1006A000EA0120E030E00AC0FB01E20FF31FD901AC
:1006B000A653BE4F8C9180832F5F3F4F2417A0F32A
:1006C000842F08950F931F93582F122F413210F04B
:1006D00081E04AC08091C2018823E1F782E08093E3
:1006E000C2010093C4018FEF80932F021092EA01A0
:1006F0004093EB01AAECB1E0FB0102C081918D9324
:100700008E2F861B8417D0F31092C3018091C301F2
:10071000550F852B8093C3018091C501813041F431
:100720001092C5018091C3018093BB0085EC01C08C
:1007300085EE8093BC00112321F08091C2018230AC
:10074000E1F380912F028F3F11F480E00DC0809182
:100750002F02803211F482E007C080912F02803393
:1007600011F084E001C083E01F910F910895482F9C
:10077000613210F081E008958091C201843011F05F
:1007800082E0089560930D02ACEEB1E0842F9C01ED
:10079000F90102C081918D938E2F841B8617D0F3AF
:1007A00080E008951F920F920FB60F9211242F939D
:1007B0003F934F935F936F937F938F939F93AF93E9
:1007C000BF93EF93FF938091B90090E0887F907082
:1007D0008036910509F4F2C081369105CCF5883256
:1007E000910509F47BC089329105B4F480319105FB
:1007F00009F46FC0813191053CF4009709F447C1B9
:10080000089709F04FC165C08831910509F466C0A9
:10081000809709F047C182C08034910509F4A4C0D3
:100820008134910544F48033910509F482C0C8975E
:1008300009F038C189C08035910509F489C088352F
:10084000910509F496C08834910509F02BC1AEC01A
:100850008839910509F413C189399105ECF4883779
:10086000910509F4ABC0893791054CF488369105A0
:1008700009F4A4C08037910509F014C19FC08838DD
:10088000910509F4FCC08039910509F49DC08038B8
:10089000910509F007C198C0803B910509F4C6C0D5
:1008A000813B91054CF4803A910509F49FC0883A48
:1008B000910509F0F7C0BAC0803C910509F4E3C086
:1008C000883C910509F4DFC0883B910509F0EAC036
:1008D000C2C08091C3018093BB00CFC09091EA0158
:1008E0008091EB01981768F49091EA01E92FF0E00C
:1008F000E653FE4F80818093BB009F5F9093EA0197
:10090000BCC08091C401882309F44BC085ED80935D
:10091000BC008091BC0084FDFCCFC2C080E280930B
:100920002F0285ED8093BC008091BC0084FDFCCF3C
:10093000B7C080E380932F0285ED8093BC00809147
:10094000BC0084FDFCCFACC088E380932F029BC029
:100950008091EA019091BB00E82FF0E0E653FE4F52
:1009600090838F5F8093EA019091EA018091EB017F
:1009700082C08091EA019091BB00E82FF0E0E6533D
:10098000FE4F90838F5F8093EA018091C40188239A
:1009900041F085ED8093BC008091BC0084FDFCCFCC
:1009A0007FC081E08093C50184EA6EC085ED8093AD
:1009B000BC008091BC0084FDFCCF72C083E08093BA
:1009C000C20110922E0259C080912E02803208F08E
:1009D00056C080912E029091BB00E82FF0E0E25FBC
:1009E000FD4F90838F5F80932E0247C080912E022F
:1009F000803230F4E0912E02F0E0E25FFD4F108291
:100A000085ED8093BC008091BC0084FDFCCF1092EA
:100A1000C20160912E02E091C801F091C9018EE0FF
:100A200092E070E0099510922E022DC084E0809330
:100A3000C20110920C0210920D02E091C601F091D9
:100A4000C701099580910D02882329F481E08093E4
:100A50000D021092EC0190910C02E92FF0E0E451AC
:100A6000FE4F80818093BB009F5F90930C0290911A
:100A70000C0280910D02981710F485EC01C085E8F6
:100A80008093BC000FC085EC8093BC0009C010921D
:100A90002F0285ED8093BC008091BC0084FDFCCFCB
:100AA0001092C201FF91EF91BF91AF919F918F91F1
:100AB0007F916F915F914F913F912F910F900FBE5A
:100AC0000F901F90189561E00E948505089510927F
:100AD000C20181E08093C4011092C5013C9882E17B
:100AE0000E9463053D9883E10E946305E9EBF0E015
:100AF00080818E7F808380818D7F80838DEF809346
:100B0000B80085E48093BC000895482F883058F4DD
:100B100081E090E002C0880F991F4A95E2F7982F74
:100B2000EBE2F0E025C08850863078F4242F30E0E6
:100B30002850304081E090E002C0880F991F2A952C
:100B4000E2F7982FE5E2F0E013C0842F8E50863054
:100B5000E8F4242F30E02E50304081E090E002C0D5
:100B6000880F991F2A95E2F7982F11C0E8E2F0E06C
:100B70002FB7F894662329F4808190959823908369
:100B800003C08081892B80832FBF089591E04E5050
:100B9000463060F30895209134023091350240913F
:100BA00036025091370270913802DA01C90140963D
:100BB000A11DB11D672F605D6D3730F06D57DA01F3
:100BC000C9014196A11DB11D609338028093340282
:100BD00090933502A0933602B09337028091300291
:100BE00090913102A0913202B09133020196A11D81
:100BF000B11D8093300290933102A0933202B093E2
:100C0000330208958FB7F894209134023091350261
:100C100040913602509137028FBFB901CA01089541
:100C2000EF92FF920F931F937B018C018FB7F89483
:100C30004091340250913502609136027091370232
:100C40008FBF2FB7F8948091340290913502A09114
:100C50003602B09137022FBF841B950BA60BB70B42
:100C60008E159F05A007B10760F31F910F91FF90AC
:100C7000EF900895009751F0019741F0019731F0FE
:100C800096958795969587950197F1F708950E9417
:100C9000B30A0E9461000E946D01FDCF1F920F9266
:100CA0000FB60F9211241F932F933F934F935F938F
:100CB0006F937F938F939F93AF93BF93EF93FF9324
:100CC000E0919302F09194021081E0914502F0913D
:100CD00046020190F081E02D85E492E0099580972D
:100CE000E0F48091490290914A02019690934A0261
:100CF0008093490280914B0290914C02FC01E75C89
:100D0000FD4F168B019690934C0280934B02809777
:100D100024F010924C0210924B02FF91EF91BF9180
:100D2000AF919F918F917F916F915F914F913F9183
:100D30002F911F910F900FBE0F901F9018951F922B
:100D40000F920FB60F9211248F939F93AF93BF937F
:100D5000EF93FF938091730290917402892B09F1B4
:100D6000A0919302B09194028091730290917402C9
:100D7000019790937402809373028091770290910F
:100D80007802FC01E758FD4FE081019690937802CC
:100D900080937702409724F01092780210927702A5
:100DA000EC938091730290917402892B31F4E0915D
:100DB0008F02F091900288E98083FF91EF91BF91BB
:100DC000AF919F918F910F900FBE0F901F9018952C
:100DD000FC011382128288EE93E0A0E0B0E08483ED
:100DE0009583A683B78388E491E09183808388E527
:100DF00091E09587848780E290E097878687118AC3
:100E0000108A80899189958B848B938B828B82E663
:100E100091E097AB86AB80E190E091AF80AF13AEED
:100E200012AE82AD93AD97AF86AF95AF84AF662318
:100E3000D1F4E05BFF4F85EC90E08193919384ECDB
:100E400090E08193919380EC90E08193919381EC79
:100E500090E08193919382EC90E08193919386EC62
:100E600090E09183808308955F926F927F928F923A
:100E70009F92AF92BF92CF92DF92EF92FF920F9329
:100E80001F93CF93DF93EC015A016B01922E502EEA
:100E90008E2C60E271EA87E090E0A60195010E9445
:100EA0000F102C5F3F4F4F4F5F4F93E05695479584
:100EB000379527959A95D1F7390160E472E48FE070
:100EC00090E0A60195010E940F102C5F3F4F4F4FFD
:100ED0005F4F83E056954795379527958A95D1F7CB
:100EE000790140E050E068E478EE81E090E00E9413
:100EF000311089010A191B0917FF03C010950195CC
:100F00001F4F930140E050E064E274EF80E090E016
:100F10000E9431102A193B0937FF03C030952195F3
:100F20003F4FFE01EC5AFF4F021713073CF40190AC
:100F3000F081E02D82E08083970105C00190F0816F
:100F4000E02D108293012150304086E0981669F020
:100F5000891520F095E09916B9F409C087E0981634
:100F600041F099E0991681F406C082E00EC080E05D
:100F70000CC084E00AC0CA5ADF4FE881F981C65527
:100F8000D04080818460808386E092E0591609F425
:100F9000886091E0891621F092E0891621F402C060
:100FA000806301C08062C85ADF4FE881F981808385
:100FB0002897E991F9913083E881F981208324967B
:100FC000E881F98188E98083DF91CF911F910F91AA
:100FD000FF90EF90DF90CF90BF90AF909F908F9059
:100FE0007F906F905F900895FC0120893189C9013D
:100FF0000895DC01FC0180899189892B19F42FEF78
:101000003FEF17C03FB7F894FD01808991890197A0
:10101000918B808B84899589E80FF91F2689019629
:10102000FD01958B848B809714F0158A148A3FBF3D
:1010300030E0C9010895CF93DF93DC01EC0188898A
:101040009989892B19F42FEF3FEF08C0ED01EC8946
:10105000FD89EA0FFB1F8689282F30E0C901DF9147
:10106000CF910895FC01118A108A80899189958B0E
:10107000848B938B828B08950F931F93CF93DF9371
:10108000EC01162F8AAD9BAD4097E0F70FB7F894AF
:10109000EEA9FFA90190F081E02DCE01C696099539
:1010A0004097A0F48AAD9BAD01969BAF8AAF8CAD03
:1010B0009DADFE01E80FF91FE05CFF4F1083019624
:1010C0009DAF8CAF409714F01DAE1CAECA5ADF4FD7
:1010D000E881F9818081806280830FBF81E090E0A8
:1010E000DF91CF911F910F910895FC0124813581EB
:1010F000C9010895FC0124813581C9010895665F05
:101100007F4F680F791FCB010895665F7F4F680F8F
:10111000791FCB010895665F7F4F680F791FCB0160
:101120000895665F7F4F680F791FCB01089589E3AB
:1011300092E060E00E94E8060895CF92DF92EF927D
:10114000FF920F931F93CF93DF937C016B018A0172
:10115000C0E0D0E00FC0D6016D916D01D701ED91D7
:10116000FC910190F081E02DC7010995C80FD91FAE
:10117000015010400115110571F7CE01DF91CF919B
:101180001F910F91FF90EF90DF90CF900895EF9215
:10119000FF920F931F938C01DC01ED91FC91019064
:1011A000F081E02D6DE009957C01D801ED91FC9175
:1011B0000190F081E02DC8016AE009959C012E0D97
:1011C0003F1DC9011F910F91FF90EF900895CF939C
:1011D000DF93EC016115710519F420E030E00FC0D8
:1011E000DB010D900020E9F71197A61BB70BE881F2
:1011F000F9810280F381E02DAD0109959C01C901BF
:10120000DF91CF9108954F925F927F928F929F923C
:10121000AF92BF92CF92DF92EF92FF920F931F9304
:10122000DF93CF93CDB7DEB7A1970FB6F894DEBFAB
:101230000FBECDBF2C01742ECB01223008F42AE062
:1012400019A231E2C32ED12CCC0EDD1E822E9924A0
:10125000AA24BB24672D752FA50194010E940F10AD
:1012600079018A01C801B701A50194010E94F00F1C
:10127000472D461B0894C108D1084A3014F4405D3C
:1012800001C0495CF6014083E114F1040105110538
:1012900021F07E2C5F2DC801DDCFC201B6010E9476
:1012A000E708A1960FB6F894DEBF0FBECDBFCF9171
:1012B000DF911F910F91FF90EF90DF90CF90BF9043
:1012C000AF909F908F907F905F904F900895CF92B6
:1012D000DF92EF92FF920F931F93CF93DF93EC0176
:1012E0006A017B012115310541F4E881F981019002
:1012F000F081E02D642F09951FC02A303105D1F40B
:1013000077FF17C0E881F9810190F081E02D6DE24F
:1013100009958C0144275527BA014C195D096E09BE
:101320007F09CE012AE00E9403099801280F391F86
:1013300004C02AE00E9403099C01C901DF91CF91FA
:101340001F910F91FF90EF90DF90CF900895DC01F7
:101350002115310541F4ED91FC910190F081E02DD2
:10136000642F099508950E94030908950E94E708D3
:1013700008957F928F929F92AF92BF92CF92DF9209
:10138000EF92FF920F931F93CF93DF934C017A015B
:101390008B01722ECB01BA01A80197010E94EC0FBC
:1013A000882321F0C40166E271E021C0C0E0D0E0F2
:1013B00057016801E894D7F8C601B5012FEF3FEF58
:1013C0004FE75FE70E94EC0F882351F4C601B50197
:1013D0002FEF3FEF4FE75FE70E94360E181614F02D
:1013E000C1E0D0E0219739F0C4016AE271E00E94C7
:1013F000E708EC0193C0C801B7012FEF3FEF4FE7BB
:101400005FE40E94850F181654F0C801B7012FEF52
:101410003FEF4FE75FEC0E94360E882324F4C401AF
:101420006EE271E0E4CFC801B70120E030E040E0B7
:1014300050E00E94360E87FD03C0C0E0D0E00EC031
:10144000D401ED91FC910190F081E02DC4016DE299
:101450000995EC0117FB109517F9109520E030E085
:1014600040E05FE3DD240BC0CA01B90120E030E0B9
:1014700040E251E40E943A0E9B01AC01D394D71490
:1014800098F3C801B7010E94D20D5B016C010E9464
:10149000A70E7B018C01C401B801A7012AE030E04E
:1014A0000E94A709C80FD91F772039F0C40162E351
:1014B00071E00E94E708C80FD91FC801B7010E9458
:1014C000D30E9B01AC01C601B5010E94D10D24C011
:1014D00020E030E040E251E40E94890F7B018C0162
:1014E0000E94A20E5B016C01CC24B7FCC094DC2CE2
:1014F000C401B601A5012AE030E00E946709C80FC7
:10150000D91FC601B5010E94D50E9B01AC01C801CF
:10151000B7010E94D10D7A947720D1F6CE01DF91E8
:10152000CF911F910F91FF90EF90DF90CF90BF90E0
:10153000AF909F908F907F9008950E94B909089571
:10154000EF92FF920F931F937C010E94E7088C019A
:10155000C7010E94C708080F191FC8011F910F91EA
:10156000FF90EF9008950F931F9305E912E0C801D3
:1015700063E00E94A80DC80160E04BEC55E021E05B
:101580000E947D0DC80164E00E94780C07EB12E018
:10159000C80161E00E94A80DC80164E00E94780CB7
:1015A00009ED12E0C80161E00E94A80DC80164E0E5
:1015B0000E94780C78941F910F9108951F920F92BA
:1015C0000FB60F9211242F933F934F935F936F9316
:1015D0007F938F939F93AF93BF93EF93FF93E0918C
:1015E000AF02F091B002309709F00995FF91EF91A9
:1015F000BF91AF919F918F917F916F915F914F912B
:101600003F912F910F900FBE0F901F9018951F9232
:101610000F920FB60F9211242F933F934F935F9326
:101620006F937F938F939F93AF93BF93EF93FF93AA
:10163000E091B102F091B202309709F00995FF9163
:10164000EF91BF91AF919F918F917F916F915F913A
:101650004F913F912F910F900FBE0F901F901895B3
:101660001F920F920FB60F9211242F933F934F9317
:101670005F936F937F938F939F93AF93BF93EF93FA
:10168000FF93E091AD02F091AE02309709F0099519
:10169000FF91EF91BF91AF919F918F917F916F914A
:1016A0005F914F913F912F910F900FBE0F901F9020
:1016B00018951F920F920FB60F9211242F933F93FC
:1016C0004F935F936F937F938F939F93AF93BF934A
:1016D000EF93FF93E091F302F091F402309709F059
:1016E0000995FF91EF91BF91AF919F918F917F915C
:1016F0006F915F914F913F912F910F900FBE0F907F
:101700001F9018951F920F920FB60F9211242F93CE
:101710003F934F935F936F937F938F939F93AF9379
:10172000BF93EF93FF93E091F502F091F6023097AB
:1017300009F00995FF91EF91BF91AF919F918F9122
:101740007F916F915F914F913F912F910F900FBEBD
:101750000F901F9018951F920F920FB60F921124A1
:101760002F933F934F935F936F937F938F939F93A9
:10177000AF93BF93EF93FF93E091F102F091F202E8
:10178000309709F00995FF91EF91BF91AF919F912B
:101790008F917F916F915F914F913F912F910F901A
:1017A0000FBE0F901F9018951F920F920FB60F92B9
:1017B00011242F933F934F935F936F937F938F9356
:1017C0009F93AF93BF93EF93FF93E091D102F0917A
:1017D000D202309709F00995FF91EF91BF91AF9137
:1017E0009F918F917F916F915F914F913F912F9139
:1017F0000F900FBE0F901F9018951F920F920FB66B
:101800000F9211242F933F934F935F936F937F9386
:101810008F939F93AF93BF93EF93FF93E091D30286
:10182000F091D402309709F00995FF91EF91BF91A3
:10183000AF919F918F917F916F915F914F913F9168
:101840002F910F900FBE0F901F9018951F920F921F
:101850000FB60F9211242F933F934F935F936F9383
:101860007F938F939F93AF93BF93EF93FF93E091F9
:10187000CF02F091D002309709F00995FF91EF91D6
:10188000BF91AF919F918F917F916F915F914F9198
:101890003F912F910F900FBE0F901F9018951F92A0
:1018A0000F920FB60F9211242F933F934F935F9394
:1018B0006F937F938F939F93AF93BF93EF93FF9318
:1018C000E091D702F091D802309709F00995FF9185
:1018D000EF91BF91AF919F918F917F916F915F91A8
:1018E0004F913F912F910F900FBE0F901F90189521
:1018F000FC018081823081F4643031F1653028F45C
:101900006230E1F06330F0F40FC0663009F1663008
:10191000E8F0673009F51EC06630B1F0673038F482
:10192000623061F0643071F06130B1F409C0683048
:1019300079F0683058F0693079F40CC092E00DC04D
:1019400091E00BC093E009C094E007C095E005C0AA
:1019500096E003C097E001C090E00284F385E02D9B
:101960008081887F982B90830895CF93DF93EC013B
:101970006883613019F1613020F0623009F06CC089
:1019800048C01B821A8286E490E09D838C838EE699
:1019900090E09F838E8384E490E09987888785E434
:1019A00090E09B878A871D861C8687E490E09F874E
:1019B0008E87198A188A88E490E022C08FE690E02A
:1019C0009F838E8385E890E09B838A8384E890E000
:1019D0009D838C8380E890E09987888781E890E0F8
:1019E0009B878A8789E890E09D878C8788E890E0CC
:1019F0009F878E878BE890E0998B888B8AE890E0B0
:101A00009B8B8A8B1D8A1C8A1F8A1E8A82E089838F
:101A100023C01B821A8282EB90E09D838C8380E737
:101A200090E09F838E8380EB90E09987888781EB9D
:101A300090E09B878A871D861C8683EB90E09F87BA
:101A40008E87198A188A84EB90E09B8B8A8B1D8A7B
:101A50001C8A1F8A1E8A6983CE0160E00E94780C6E
:101A6000EA81FB81309709F01082EC81FD811082C0
:101A7000198E188E1B8E1A8E1D8E1C8E1F8E1E8E1A
:101A800019A218A2DF91CF910895FC01623071F084
:101A9000633028F4662381F0613071F505C063304E
:101AA00039F0643049F506C081E007C082E005C026
:101AB00083E003C085E001C080E00680F781E02D6F
:101AC0002081682F772767FD709581E090E0062ED2
:101AD00002C0880F991F0A94E2F78095822320E0C4
:101AE00030E0442311F021E030E002C0220F331F28
:101AF0006A95E2F7822B80830895FC01623091F0B1
:101B0000633028F4662341F06130A1F408C06330EB
:101B100061F0643079F40CC0518F408F0BC0538F4B
:101B2000428F08C0558F448F05C0578F468F02C023
:101B300051A340A3452B29F4CF0140E00E94450D5D
:101B40000895222321F0CF0141E00E94450D089520
:101B5000CF93DF93EC01E885F9858081962F937010
:101B60008C7F982B9083EA85FB85808170E06C7078
:101B70007070660F771F877E862B8083DF91CF91F1
:101B8000089585E992E060E00E94B50C87EB92E051
:101B900061E00E94B50C89ED92E062E00E94B50C14
:101BA00008955058BB27AA270ED075C166D130F0D2
:101BB0006BD120F031F49F3F11F41EF45BC10EF4A1
:101BC000E095E7FB51C1E92F77D180F3BA1762079F
:101BD00073078407950718F071F49EF58FC10EF412
:101BE000E0950B2EBA2FA02D0B01B90190010C012D
:101BF000CA01A0011124FF27591B99F0593F50F445
:101C0000503E68F11A16F040A22F232F342F44279C
:101C1000585FF3CF469537952795A795F040539594
:101C2000C9F77EF41F16BA0B620B730B840BBAF064
:101C30009150A1F0FF0FBB1F661F771F881FC2F7CF
:101C40000EC0BA0F621F731F841F48F487957795E3
:101C50006795B795F7959E3F08F0B3CF9395880F9A
:101C600008F09927EE0F979587950895D9D008F435
:101C700081E008950CD00FC107D140F0FED030F0C4
:101C800021F45F3F19F0F0C0511139C1F3C014D1F4
:101C900098F39923C9F35523B1F3951B550BBB2733
:101CA000AA2762177307840738F09F5F5F4F220FE0
:101CB000331F441FAA1FA9F333D00E2E3AF0E0E8D9
:101CC00030D091505040E695001CCAF729D0FE2F25
:101CD00027D0660F771F881FBB1F261737074807B7
:101CE000AB07B0E809F0BB0B802DBF01FF2793586D
:101CF0005F4F2AF09E3F510568F0B6C000C15F3FBC
:101D0000ECF3983EDCF3869577956795B795F79554
:101D10009F5FC9F7880F911D9695879597F908954C
:101D2000E1E0660F771F881FBB1F621773078407E8
:101D3000BA0720F0621B730B840BBA0BEE1F88F7F7
:101D4000E095089504D06894B111D9C00895BCD02D
:101D500088F09F5790F0B92F9927B751A0F0D1F094
:101D6000660F771F881F991F1AF0BA95C9F712C01E
:101D7000B13081F0C3D0B1E00895C0C0672F782F93
:101D80008827B85F39F0B93FCCF38695779567958A
:101D9000B395D9F73EF490958095709561957F4FF6
:101DA0008F4F9F4F0895E89409C097FB3EF490959C
:101DB0008095709561957F4F8F4F9F4F9923A9F024
:101DC000F92F96E9BB279395F695879577956795B3
:101DD000B795F111F8CFFAF4BB0F11F460FF1BC0F7
:101DE0006F5F7F4F8F4F9F4F16C0882311F096E98A
:101DF00011C0772321F09EE8872F762F05C0662338
:101E000071F096E8862F70E060E02AF09A95660FF0
:101E1000771F881FDAF7880F9695879597F90895A9
:101E2000990F0008550FAA0BE0E8FEEF16161706EB
:101E3000E807F907C0F012161306E407F50798F053
:101E4000621B730B840B950B39F40A2661F0232B6C
:101E5000242B252B21F408950A2609F4A140A695E8
:101E60008FEF811D811D089597F99F6780E870E0CD
:101E700060E008959FEF80EC089500240A94161600
:101E8000170618060906089500240A941216130668
:101E9000140605060895092E0394000C11F48823F6
:101EA00052F0BB0F40F4BF2B11F460FF04C06F5F12
:101EB0007F4F8F4F9F4F089557FD9058440F551FE8
:101EC00059F05F3F71F04795880F97FB991F61F0BC
:101ED0009F3F79F087950895121613061406551F33
:101EE000F2CF4695F1DF08C0161617061806991F9F
:101EF000F1CF86957105610508940895E894BB2794
:101F000066277727CB0197F908958ADF08F48FEFCA
:101F100008950BD0C0CFB1DF28F0B6DF18F09523BD
:101F200009F0A2CFA7CF1124EACFC6DFA0F3959F77
:101F3000D1F3950F50E0551F629FF001729FBB27B0
:101F4000F00DB11D639FAA27F00DB11DAA1F649F5C
:101F50006627B00DA11D661F829F2227B00DA11D0F
:101F6000621F739FB00DA11D621F839FA00D611D95
:101F7000221F749F3327A00D611D231F849F600DB6
:101F8000211D822F762F6A2F11249F5750408AF0EF
:101F9000E1F088234AF0EE0FFF1FBB1F661F771F7B
:101FA000881F91505040A9F79E3F510570F05CCFBB
:101FB000A6CF5F3FECF3983EDCF386957795679567
:101FC000B795F795E7959F5FC1F7FE2B880F911D99
:101FD0009695879597F9089523DF880B990B0895B7
:101FE000629FD001739FF001829FE00DF11D649FFD
:101FF000E00DF11D929FF00D839FF00D749FF00D89
:10200000659FF00D9927729FB00DE11DF91F639F29
:10201000B00DE11DF91FBD01CF0111240895A1E20A
:102020001A2EAA1BBB1BFD010DC0AA1FBB1FEE1F52
:10203000FF1FA217B307E407F50720F0A21BB30B9D
:10204000E40BF50B661F771F881F991F1A9469F719
:1020500060957095809590959B01AC01BD01CF0175
:10206000089597FB092E05260ED057FD04D0D7DF23
:102070000AD0001C38F450954095309521953F4F7B
:102080004F4F5F4F0895F6F7909580957095619545
:102090007F4F8F4F9F4F0895EE0FFF1F0590F491D4
:0820A000E02D0994F894FFCF34
:1020A800454A454354205400454A4543542041007D
:1020B800206D2000204D41582000204449464620EC
:1020C800006D730A0D006E616E00696E66006F76B2
:1020D80066002E0000000000BA0289024202600277
:1020E8004B027102000000003C089D08F4071B0821
:1020F800F9073208000000007A088B0891080000F0
:08210800000075087F0885083E
:00000001FF
